S012000063616C63756C61746F722E73726563E8
S11300000C943A000C944F000C944F000C944F0045
S11300100C944F000C944F000C944F000C944F0020
S11300200C944F000C944F000C944F000C944F0010
S11300300C944F000C944F000C944F000C944F0000
S11300400C944F000C944F000C944F000C944F00F0
S11300500C944F0078005B007A005D005F00610043
S113006063006500670069006B006D006F0071003C
S11300707300750011241FBECFE5D8E0DEBFCDBFED
S113008010E0A0E6B0E0EEE3F5E002C005900D92CA
S1130090A238B107D9F70E943C010C949D020C943C
S11300A0000090E0FC013197E031F10500F5E65DD8
S11300B0FF4F0C944E0288E008958FE2089584E087
S11300C0089585E0089586E008958AE2089581E020
S11300D0089582E0089583E008958DE2089582E50D
S11300E0089580E008958DE308958BE208950895BE
S11300F087E0089589E0089584B3806F84BB84B356
S1130100807F84BB85B38F6085BBE1E0F0E064E071
S113011070E080E095B3906F95BB25B3AF01062ED8
S113012002C0440F551F0A94E2F7942F909592232E
S113013095BB989B0EC041E050E0942F23B330E070
S1130140042E02C0359527950A94E2F720FD09C0D4
S113015001C090E08F5F990F990F890F0E945100A1
S113016008954F5F5F4F4430510539F78F5F6F5FDC
S11301707F4F843079F6CBCF9BB39F70282F207F9D
S1130180922B9BBBC198C298C39A32E03A95F1F77F
S113019000C0C398EFE8F1E03197F1F700C0000028
S11301A02BB32F70F0E18F9FC0011124822B8BBBE6
S11301B0C39A32E03A95F1F700C0C3988FE99FE003
S11301C00197F1F700C0000008958AB3806F8ABBDD
S11301D087B38E6087BB8FE39CE90197F1F700C07A
S11301E0000082E00E94BC0088E20E94BC0081E022
S11301F00E94BC008CE00E94BC0008959BB39F70D9
S1130200282F207F922B9BBBC19AC298C39A32E0BD
S11302103A95F1F700C0C398EFE8F1E03197F1F7B0
S113022000C000002BB32F70F0E18F9FC001112498
S1130230822B8BBBC39A32E03A95F1F700C0C39886
S11302408FE99FE00197F1F700C000000895CF9374
S1130250DF93EC018881882331F021960E94FE000F
S113026089918111FBCF8FE99FE00197F1F700C0DD
S11302700000DF91CF910895CF93DF93CDB7DEB720
S113028064970FB6F894DEBF0FBECDBF0E94E500A1
S1130290512C812C912CC12CD12CE12CF12C612CD2
S11302A0712CA12CB12C2FC0023541F481E00E94A5
S11302B0BC00C62CD72CE62CF72C25C010E04AE055
S11302C0BE016F5F7F4FC8010E946802CE01019694
S11302D00E9427012FEF82E597E021508040904053
S11302E0E1F700C00000C701880F991FEE0CFF1C46
S11302F0EE0CFF1CEE0CFF1CE80EF91EE00EF11EC6
S11303002FEFA21AB20A0E947C00082F8D7F8D3233
S113031009F4ACC086ED800F823008F4A7C00D3319
S113032019F6AB2871F480E690E00E9427018FEF64
S113033090E722E0815090402040E1F700C00000A7
S1130340B0CF8DE30E94FE008FEF92E527E081504D
S113035090402040E1F700C00000852D0E94FE007F
S11303608FEF92E527E0815090402040E1F700C0F4
S1130370000062C0A52CB12C4AE0BE016F5F7F4F24
S1130380C5010E946802CE0101960E942701C601A0
S1130390880F991FCC0CDD1CCC0CDD1CCC0CDD1C97
S11303A0C80ED91ECA0CDB1C8FEF92E527E08150E2
S11303B090402040E1F700C000000E947C00582ECD
S11303C08DE35812D7CF0E94FE009FEF22E587E00D
S11303D0915020408040E1F700C000000D3279F0D8
S11303E028F40A3281F00B3231F027C00F3299F031
S11303F00D3311F122C047018C0C9D1C1EC0470116
S11304008C189D081AC0EC9C4001ED9C900CFC9C3F
S1130410900C112412C0C114D10441F481E00E9453
S1130420BC0081E790E00E94270107C0C701B60124
S11304300E943A024B0101C047014AE0BE016F5FCE
S11304407F4FC4010E946802CE0101960E942701D9
S113045028CF802F0E94FE009FEF22E587E0915075
S113046020408040E1F700C00000A7CFAB2809F48A
S11304705ACFEFCF97FB072E16F4009407D077FDE1
S113048009D00E94540207FC05D03EF49095819552
S11304909F4F0895709561957F4F0895EE0FFF1F4C
S11304A00590F491E02D0994AA1BBB1B51E107C0F0
S11304B0AA1FBB1FA617B70710F0A61BB70B881FF0
S11304C0991F5A95A9F780959095BC01CD0108957F
S11304D0BB274A3031F4992322F4BDE290958195EB
S11304E09F4F0C947402BB27FB015527AA27880F42
S11304F0991FAA1FA41710F0A41B83955051B9F794
S1130500A05DAA3308F0A95DA193009779F7B11112
S1130510B1931192CB010C948D02DC01FC01672F85
S113052071917723E1F7329704C07C916D937083C6
S11105306291AE17BF07C8F30895F894FFCF89
S113053E2053594E544158204552524F5220212097
S113054E004C4F474943414C204552524F522021B3
S105055E000097
S9030000FC
